:020000040800F2
:1000000088060020350200083D0200083F02000873
:1000100041020008430200084502000800000000F9
:10002000000000000000000000000000470200087F
:1000300049020008000000004B0200084D020008C1
:100040004F0200084F0200084F0200084F0200084C
:100050004F0200084F0200084F0200084F0200083C
:100060004F0200084F0200084F0200084F0200082C
:100070004F0200084F0200084F0200084F0200081C
:100080004F0200084F0200084F0200080000000065
:100090000000000000000000000000004F02000807
:1000A0004F0200084F0200084F0200084F020008EC
:1000B0004F0200084F0200084F0200084F020008DC
:1000C0004F0200084F0200084F0200084F020008CC
:1000D0004F0200084F0200084F0200080000000015
:1000E0004F0200084F0200084F0200080000000005
:1000F0000000000000000000000000004F020008A7
:10010000000000004F0200084F0200084F020008E4
:1001100000000000000000000000000000000000DF
:100120004F0200084F0200084F0200084F0200086B
:100130004F02000800000000000000000000000066
:100140000000000000000000000000004F02000856
:100150004F0200084F0200084F0200084F0200083B
:100160004F0200084F0200080000000000000000DD
:10017000000000000000000000000000000000007F
:10018000000000004F020008000000000000000016
:100190004F02000800F002F800F03CF80AA090E8D6
:1001A000000C82448344AAF10107DA4501D100F032
:1001B00031F8AFF2090EBAE80F0013F0010F18BFC3
:1001C000FB1A43F001031847E4070000040800008D
:1001D000103A24BF78C878C1FAD8520724BF30C873
:1001E00030C144BF04680C60704700000023002445
:1001F00000250026103A28BF78C1FBD8520728BF37
:1002000030C148BF0B6070471FB500F0C2FB1FBD77
:1002100010B510BD00F031F81146FFF7F5FF00F002
:100220003BFB00F04FF803B4FFF7F2FF03BC00F014
:1002300057F800000948804709480047FEE7FEE7F5
:10024000FEE7FEE7FEE7FEE7FEE7FEE7FEE7FEE786
:1002500004480549054A064B704700000D06000892
:1002600095010008880000208806002088020020F0
:1002700088020020704770477047754600F02CF8E0
:10028000AE4605006946534620F00700854618B083
:1002900020B5FFF7DDFFBDE820404FF000064FF02E
:1002A00000074FF000084FF0000BAC46ACE8C00967
:1002B000ACE8C009ACE8C009ACE8C00921F007010E
:1002C0008D46704710B50446AFF300802046BDE868
:1002D0001040FFF7A8BF000000487047280000202A
:1002E00001491820ABBEFEE726000200704700005F
:1002F0002DE9F04F83B000F13E4202F1FF7243F668
:10030000004E4FEAB22241F20007C4F2010E019200
:10031000C4F2020707224FF0010B00254FF000083E
:100320004FF00009B84208BF042200920AE000BF63
:1003300009F1010908F10408B9F1100F05F10205EE
:1003400000F0A0800F680BFA09F417EA040CEFD054
:10035000D1F804A0BAF1120F15D80BFA0AF717F06A
:10036000061F10D087680322CE68AA4027EA02023F
:10037000AE40324382604268A243CAF3001404FADA
:1003800009F422434260C26803238C6803FA05FB28
:1003900022EA0B02AC4022434AF01004122CC26045
:1003A0000FD16FF0030202EA5902024408F01C0662
:1003B0000F23146A03FA06F70B69BC43B3402343C7
:1003C000136203684C686FEA0B021A4004F00303DF
:1003D000AB401A43E3004FF0010B0260A8D50022A6
:1003E00043F644030292C4F202031A684FF6084A25
:1003F00042F480421A601A68CFF6FF7A02F4804213
:100400000292029A29F00302724452F80A3008F06C
:100410000C040F26A640019FB343009E042F38BF53
:100420003E4606FA04F4234342F80A30DEF8002080
:100430004B6842EA0C04DE0358BF22EA0C04CEF8F3
:100440000040DEF804209E0342EA0C0458BF22EA72
:100450000C04CEF80440DEF80820DE0242EA0C0468
:1004600058BF22EA0C04CEF8084043F60C44C4F20C
:10047000010422689B0242EA0C0358BF22EA0C03E3
:10048000236055E703B0BDE8F08F00000069084025
:1004900018BF01207047000070B5044690F83C007A
:1004A00001284FF0020008BF70BD0D464FEAB201AF
:1004B0000126032984F83C6084F83D0036D8DFE843
:1004C00001F0020A12222068294600F02DF9206866
:1004D00050F8181F0EE02068294600F055F92068F2
:1004E00050F8181F16E02068294600F07FF92068B0
:1004F00050F81C1F41F008010160016821F004015F
:10050000016029690FE02068294600F0A1F9206800
:1005100050F81C1F41F400610160016821F4806102
:10052000016029690902026811430160002084F812
:100530003D6084F83C0070BD002804BF0120704776
:1005400010B5044690F83D0028B9002084F83C001E
:10055000204600F00DF8022084F83D002068211D9F
:1005600000F062F8012084F83D00002010BD00007A
:1005700070470000B0B50446006844250122C4F26B
:10058000010500F0BFF82068A5F14401884203D1BD
:10059000296841F400412960816801F007010629BA
:1005A00003D0016841F0010101600020B0BD0000EE
:1005B000B0B50446006800250022C4F2010500F031
:1005C000A1F82068A8420DD1296A41F21112114206
:1005D00008D1016A40F24442114203D1416C21F436
:1005E00000414164016A41F21112114208D1016ACD
:1005F00040F24442114203D1016821F0010101603F
:100600000121002084F83D10B0BD00004EF6885056
:10061000CEF20000016841F4700101604FF000610A
:1006200040F8801C7047000010B540F2FF7E036860
:10063000C4F2000E40F2000C7045C4F2010C0ADD59
:1006400040F60002C4F2000290420DD060450BD08B
:1006500040F6004204E0B0F1804F05D040F2004285
:10066000C4F20002904203D14A6823F0700313439E
:100670004FF6FF72C4F20002904209DC704512DCB2
:10068000B0F1804F26D040F20042C4F200021FE0D9
:1006900044F2FF32C4F2010290420FDC604519D0EF
:1006A00044F2000212E040F60002C4F2000290425E
:1006B00010D040F60042C4F2000209E044F6000205
:1006C000C4F20102904205D044F20042C4F2010299
:1006D000904203D1CA6823F44073134323F080028D
:1006E0004B69D1F800E08C681A4360450260C4622F
:1006F000C0F828E002D10969CCF83010012141612D
:1007000010BD000080B501F01F014FF0010CD0F8C2
:1007100020E00CFA01F32EEA03030362036A02FAF3
:1007200001F11943016280BDB0B5026A002422F0D4
:1007300001020262026AD0F804E0D0F818C08B68A7
:1007400022F00202C4F20104A04242EA030205D1EF
:10075000CB6822F00C0223F004031A430B68A0427A
:1007600007D1D1E905452EF4407E44EA0E0444EA5F
:10077000050E2CF073052B43C0F804E08361496833
:1007800041630262B0BD0000B0B5026A002422F0ED
:1007900010020262026AD0F804E0D0F818C08B6838
:1007A00022F02002C4F20104A04242EA031207D15F
:1007B000CB686FF0400522F0C00205EA03131A432C
:1007C0000B68A04207D1D1E905452EF4406E4EEAF0
:1007D000840444EA850E2CF4E64545EA0323C0F878
:1007E00004E08361496881630262B0BDB0B5026A0A
:1007F000002422F480720262026AD0F804E0D0F889
:100800001CC08B6822F40072C4F20104A04242EAC8
:10081000032207D1CB6840F2FF451B0222F440625D
:10082000AB431A430B68A04207D1D1E905452EF42A
:10083000405E4EEA041444EA051E2CF073052B4377
:10084000C0F804E0C3614968C1630262B0BD000042
:10085000B0B5026A002522F480520262026A43683F
:10086000D0F81CE00C68D1F808C0C4F20105A84219
:1008700004D14D6923F4804343EA85132EF4E64501
:1008800045EA04254360C56122F40052496842EA02
:100890000C3201640262B0BDA2B040201D90122053
:1008A0001E90032020900127002643F63000219758
:1008B00018971B96CDE919670896C4F202000168E3
:1008C00040F2004441F0010101600168C4F20204F9
:1008D00001F00101089108990896416941F0010170
:1008E0004161416901F00101089108990896016888
:1008F00041F00201016000681DA900F002000890AB
:100900000898A4F58060FFF7F3FC18A92046FFF7CC
:10091000EFFC80208DF83C608DF85D600E9041F218
:1009200030100B90FF20CDE90C604FF4FA7008AD49
:100930000290284609960A96FFF7FEFD01A928466F
:100940000022FFF7A9FD8DF85D704CF6CD4840F20E
:100950000007CCF6CC48C2F2000700BF28460021B1
:10096000FFF708FE20460121FFF790FD0028F9D18E
:1009700028460021FFF71CFE701CC0B2A0FB081225
:10098000D10801EB8101A0EB410657F82600029047
:10099000E4E7F1EE100A4FF6FF71C0F2C03120EA31
:1009A000010040F04070E1EE100A7047CC090008E9
:1009B0000000002028000000D0010008F409000811
:1009C0002800002060060000EC0100080C00000078
:1009D000B0040000E02E0000BD0400004101000052
:1009E00088DC000030000000D91E00009FBB0D0015
:0409F000AE520800FB
:0400000508000235B8
:00000001FF
